:020000040800F2
:1000000000280020FD1500088D1500089315000834
:10001000991500089F150008A515000800000000AC
:10002000000000000000000000000000AB15000808
:10003000B715000800000000C3150008CF15000820
:100040004516000845160008451600084516000824
:100050004516000845160008451600084516000814
:100060004516000845160008451600084516000804
:1000700045160008451600084516000845160008F4
:1000800045160008451600084516000845160008E4
:1000900045160008451600084516000845160008D4
:1000A00045160008451600084516000845160008C4
:1000B000DD15000845160008000000004516000880
:1000C000451600080000000000000000451600086A
:1000D000000000004516000845160008000000005A
:1000E00045160008451600084516000800000000E7
:1000F0000000000000000000000000000000000000
:0C01000000000000000000005FF808F1A3
:10010C0010B5054C237833B9044B13B10448AFF345
:10011C0000800123237010BD5C0000200000000053
:10012C005C2C000808B5034B1BB103490348AFF323
:10013C00008008BD00000000600000205C2C00085E
:10014C0080B400AF064B1B68012B04D1044B00227A
:10015C001A60012300E000231846BD4680BC70479E
:10016C007800002080B400AF064B1B68012B04D133
:10017C00044B00221A60012300E000231846BD4600
:10018C0080BC70477C00002080B400AF064B1B681D
:10019C00012B04D1044B00221A60012300E0002340
:1001AC001846BD4680BC70478000002080B400AF6C
:1001BC00034B01221A6000BFBD4680BC704700BFD4
:1001CC007800002080B400AF034B01221A6000BFFE
:1001DC00BD4680BC704700BF7C00002080B400AFDF
:1001EC00034B01221A6000BFBD4680BC704700BFA4
:1001FC008000002080B500AF1F4B1B681F4A1360A6
:10020C001F4B1B681C4A13604FF400511D4801F032
:10021C00FFFC03461A461A4B1A60184B1A68164B09
:10022C001B689A4225D1144B1A68154B1B689A42CD
:10023C001FD1154B1A68124B1B689A420DD0104BEC
:10024C001B68114A13600E4B1B68002B11D1FFF772
:10025C00ADFF0E4BC8221A600BE00C4B1B68013B28
:10026C000A4A1360094B1B68002B02D1064B012272
:10027C001A6000BF80BD00BF0400002000000020F9
:10028C0008000020001001400C000020100000208D
:10029C0080B500AF1F4B1B681F4A13601F4B1B68B8
:1002AC001C4A13604FF480411D4801F0B1FC034619
:1002BC001A461A4B1A60184B1A68164B1B689A424E
:1002CC0025D1144B1A68154B1B689A421FD1154B3C
:1002DC001A68124B1B689A420DD0104B1B68114ABE
:1002EC0013600E4B1B68002B11D1FFF76BFF0E4BED
:1002FC00C8221A600BE00C4B1B68013B0A4A1360C6
:10030C00094B1B68002B02D1064B01221A6000BF5F
:10031C0080BD00BF18000020140000201C0000202D
:10032C0000100140200000202400002080B500AF08
:10033C001F4B1B681F4A13601F4B1B681C4A136022
:10034C004FF400411D4801F063FC03461A461A4B5A
:10035C001A60184B1A68164B1B689A4225D1144B1D
:10036C001A68154B1B689A421FD1154B1A68124B11
:10037C001B689A420DD0104B1B68114A13600E4B30
:10038C001B68002B11D1FFF729FF0E4BC8221A60F6
:10039C000BE00C4B1B68013B0A4A1360094B1B68B2
:1003AC00002B02D1064B01221A6000BF80BD00BF9A
:1003BC002C000020280000203000002000100140FC
:1003CC00340000203800002080B500AF554B1B686E
:1003DC00013B032B00F29F8001A252F823F000BFD7
:1003EC00FD030008410400088D040008D90400082E
:1003FC00002202214C4801F022FC002208214A482C
:10040C0001F01DFC00220421474801F018FC454B6B
:10041C0002221A60454B1B68454A82FB031252119B
:10042C00DB17D31A434A1360404B1B68184600F085
:10043C0051FF75E0012202213B4801F000FC002233
:10044C000821394801F0FBFB00220421364801F059
:10045C00F6FB394B1B68012B5FD1384B1B68344AB8
:10046C0082FB03125211DB17D31A324A13602D4B45
:10047C0003221A60314B1B68184600F02BFF4CE02E
:10048C0000220221284801F0DAFB0122082126482B
:10049C0001F0D5FB00220421234801F0D0FB264BB0
:1004AC001B68012B3BD1264B1B68214A82FB031294
:1004BC005211DB17D31A1F4A13601A4B04221A600D
:1004CC001F4B1B68184600F005FF28E00022022194
:1004DC00154801F0B4FB00220821134801F0AFFBD2
:1004EC0001220421104801F0AAFB134B1B68012BBD
:1004FC0011D10E4B1B680E4A82FB03125211DB17F3
:10050C00D31A0C4A1360074B02221A60074B1B6864
:10051C00184600F0DFFE00BF02E000BF00E000BFA5
:10052C0000BF80BD3C0000200008014044000020BA
:10053C001F85EB51B40000208800002048000020EB
:10054C004C00002080B500AF574B1B68023B032BBF
:10055C0000F2A08001A252F823F000BFBD050008F4
:10056C00090600085506000879050008002202213A
:10057C004E4801F064FB012208214C4801F05FFB5E
:10058C0000220421494801F05AFB474B03221A6010
:10059C00474B1B68474A82FB03125211DB17D31AD5
:1005AC00454A1360424B1B68184600F0C1FE78E0C8
:1005BC00012210213D4801F042FB002240213B4822
:1005CC0001F03DFB00222021384801F038FB3B4B69
:1005DC001B68012B60D1364B1B68364A82FB031219
:1005EC005211DB17D31A344A13602F4B03221A60B3
:1005FC002F4B1B68184600F09BFE4DE0002210218B
:10060C002A4801F01CFB01224021284801F017FB6D
:10061C0000222021254801F012FB284B1B68012BDE
:10062C003CD1274B1B68234A82FB03125211DB1768
:10063C00D31A214A13601C4B04221A60204B1B68EE
:10064C00184600F075FE29E000221021174801F031
:10065C00F6FA00224021154801F0F1FA012220217E
:10066C00124801F0ECFA154B1B68012B18D1154BF5
:10067C001B68104A82FB03125211DB17D31A0E4A65
:10068C001360094B02221A600E4B1B68184600F0CF
:10069C004FFE05E000BF04E000BF02E000BF00E039
:1006AC0000BF00BF80BD00BF40000020000801401B
:1006BC00480000201F85EB51B8000020900000205E
:1006CC004C0000204400002080B58CB000AF00F03E
:1006DC00B5FF00F0E5FC00F06BFD00F01DFD7B4864
:1006EC0001F0F2FE0123FB620023FB610023BB61DE
:1006FC0000237B6164233B610023BB624FF4FA73DC
:10070C00FB60C823BB604FF496737B6042F210739E
:10071C003B60322000F03AFE322000F065FE64208F
:10072C0000F090FE04237B6202233B62FFF74CFE39
:10073C00FFF708FF664B1B68012B19D1322000F024
:10074C0025FE786A00F0FEF87B6A032B02D1F86A6A
:10075C0000F050F97B6A042B02D1B86A00F04AF918
:10076C007B6A013B7B627B6A022B01DC04237B628C
:10077C00584B1B68012B1DD1322000F035FE386A16
:10078C0000F00CF93B6A012B04D1534B1B68184643
:10079C0000F0C0FA3B6A022B04D1504B1B68184680
:1007AC0000F0B8FA3B6A013B3B623B6A002B01DC70
:1007BC0002233B624A4B1B68012B09D1464B1B6839
:1007CC00013B454A1360454B1B68013B434A136090
:1007DC00FFF7B6FC0346012B18D1FB6A0133FB6211
:1007EC0000F08CF8FB6A052B01D10123FB623D4A1A
:1007FC00FB6813603C4A7B6813603C4ABB6813601F
:10080C003B4B01221A603B4B05221A60FFF7AAFCF6
:10081C000346012B02D1BB6A0133BB62FFF7B4FC68
:10082C000346012B82D1324B01221A60314B052237
:10083C001A60FB6A022B15D1FA68FB69D1182E4B92
:10084C0083FB01239A10CB17D21A13469B00134437
:10085C005B00CA1A234B1A60234A7B681360234A35
:10086C00BB681360FB6A032B15D17A68BB69D1187E
:10087C00214B83FB01239A10CB17D21A13469B00F2
:10088C0013445B00CA1A184B1A60164AFB681360B3
:10089C00164ABB681360FB6A042B7FF447AFBA6837
:1008AC007B69D118144B83FB01239A10CB17D21AF6
:1008BC0013469B0013445B00CA1A0C4B1A60094A7E
:1008CC00FB681360084A7B6813602FE7BC000020AC
:1008DC0098000020A0000020B4000020B8000020E8
:1008EC00A800002044000020480000204C000020FC
:1008FC003C000020400000206766666680B500AFB3
:10090C00002202210E4801F09AF9002208210C481D
:10091C0001F095F900220421094801F090F9002218
:10092C000221074801F08BF900220821044801F04C
:10093C0086F900220421024801F081F900BF80BD34
:10094C000008014080B582B000AF78607B68032B53
:10095C0003D07B68042B0DD019E000224FF48041AA
:10096C000D4801F06CF901224FF400410A4801F0E6
:10097C0066F90CE001224FF48041074801F05FF961
:10098C0000224FF40041044801F059F900BF00BFA8
:10099C000837BD4680BD00BF0008014080B582B05D
:1009AC0000AF78607B68012B03D07B68022B0DD0E5
:1009BC0019E000224FF480510D4801F040F901225A
:1009CC004FF400510A4801F03AF90CE001224FF4BF
:1009DC008051074801F033F900224FF400510448CC
:1009EC0001F02DF900BF00BF0837BD4680BD00BF28
:1009FC000008014080B582B000AF78607B68092B9D
:100A0C0000F2808101A252F823F000BF410A0008D5
:100A1C00890A0008D10A0008190B0008610B0008AC
:100A2C00A90B0008F10B0008390C0008810C000818
:100A3C00C90C000800220121B54801F000F9002280
:100A4C000221B34801F0FBF800220421B04801F068
:100A5C00F6F800220821AE4801F0F1F8002210212E
:100A6C00AB4801F0ECF800222021A94801F0E7F88E
:100A7C0001224021A64801F0E2F844E101220121C3
:100A8C00A34801F0DCF800220221A14801F0D7F8BC
:100A9C00002204219E4801F0D2F8012208219C4832
:100AAC0001F0CDF801221021994801F0C8F801227B
:100ABC002021974801F0C3F801224021944801F00D
:100ACC00BEF820E100220121914801F0B8F8002283
:100ADC0002218F4801F0B3F8012204218C4801F067
:100AEC00AEF8002208218A4801F0A9F80022102152
:100AFC00874801F0A4F801222021854801F09FF8D5
:100B0C0000224021824801F09AF8FCE000220121E9
:100B1C007F4801F094F8002202217D4801F08FF803
:100B2C00002204217A4801F08AF800220821784832
:100B3C0001F085F801221021754801F080F801229E
:100B4C002021734801F07BF800224021704801F00D
:100B5C0076F8D8E0012201216D4801F070F80022EE
:100B6C0002216B4801F06BF800220421684801F067
:100B7C0066F801220821664801F061F80122102173
:100B8C00634801F05CF800222021614801F057F81D
:100B9C00002240215E4801F052F8B4E0002201210D
:100BAC005B4801F04CF801220221594801F047F84A
:100BBC0000220421564801F042F800220821544832
:100BCC0001F03DF801221021514801F038F80022C3
:100BDC0020214F4801F033F8002240214C4801F00D
:100BEC002EF890E000220121494801F028F801225A
:100BFC000221474801F023F800220421444801F067
:100C0C001EF800220821424801F019F80022102198
:100C1C003F4801F014F8002220213D4801F00FF864
:100C2C00002240213A4801F00AF86CE00022012130
:100C3C00374801F004F800220221354800F0FFFF8C
:100C4C0000220421324800F0FAFF0122082130482A
:100C5C0000F0F5FF012210212D4800F0F0FF0122D9
:100C6C0020212B4800F0EBFF01224021284800F006
:100C7C00E6FF48E000220121254800F0E0FF0022B9
:100C8C000221234800F0DBFF00220421204800F061
:100C9C00D6FF002208211E4800F0D1FF00221021AF
:100CAC001B4800F0CCFF00222021194800F0C7FFA0
:100CBC0000224021164800F0C2FF24E0002201214E
:100CCC00134800F0BCFF00220221114800F0B7FFCE
:100CDC00002204210E4800F0B2FF002208210C482B
:100CEC0000F0ADFF01221021094800F0A8FF0022FE
:100CFC002021074800F0A3FF00224021044800F007
:100D0C009EFF00E000BF00BF0837BD4680BD00BF9E
:100D1C00000C014080B582B000AF78607B68002B7E
:100D2C0028D100228021D24800F089FF00224FF404
:100D3C008071CF4800F083FF00224FF40071CC4843
:100D4C0000F07DFF00224FF48061C94800F077FF6E
:100D5C0000224FF40061C64800F071FF00224FF4EE
:100D6C008051C34800F06BFF01224FF40051C04882
:100D7C0000F065FF7B68012B28D101228021BC4843
:100D8C0000F05DFF00224FF48071B94800F057FF6E
:100D9C0000224FF40071B64800F051FF01224FF4CD
:100DAC008061B34800F04BFF01224FF40061B04862
:100DBC0000F045FF01224FF48051AD4800F03FFF99
:100DCC0001224FF40051AA4800F039FF7B68022B36
:100DDC0028D100228021A64800F031FF00224FF4D8
:100DEC008071A34800F02BFF01224FF40071A04842
:100DFC0000F025FF00224FF480619D4800F01FFF9A
:100E0C0000224FF400619A4800F019FF01224FF4C0
:100E1C008051974800F013FF00224FF40051944882
:100E2C0000F00DFF7B68032B28D100228021904815
:100E3C0000F005FF00224FF480718D4800F0FFFE9A
:100E4C0000224FF400718A4800F0F9FE00224FF4A2
:100E5C008061874800F0F3FE01224FF40061844862
:100E6C0000F0EDFE01224FF48051814800F0E7FEC6
:100E7C0000224FF400517E4800F0E1FE7B68042B09
:100E8C0028D1012280217A4800F0D9FE00224FF4AB
:100E9C008071774800F0D3FE00224FF40071744843
:100EAC0000F0CDFE01224FF48061714800F0C7FEC6
:100EBC0001224FF400616E4800F0C1FE00224FF495
:100ECC0080516B4800F0BBFE00224FF40051684883
:100EDC0000F0B5FE7B68052B28D1002280216448E8
:100EEC0000F0ADFE01224FF48071614800F0A7FEC6
:100EFC0000224FF400715E4800F0A1FE00224FF476
:100F0C0080615B4800F09BFE01224FF40061584861
:100F1C0000F095FE00224FF48051554800F08FFEF2
:100F2C0000224FF40051524800F089FE7B68062BDA
:100F3C0028D1002280214E4800F081FE01224FF47E
:100F4C0080714B4800F07BFE00224FF40071484842
:100F5C0000F075FE00224FF48061454800F06FFEF2
:100F6C0000224FF40061424800F069FE00224FF469
:100F7C0080513F4800F063FE00224FF400513C4882
:100F8C0000F05DFE7B68072B28D1002280213848B9
:100F9C0000F055FE00224FF48071354800F04FFEF2
:100FAC0000224FF40071324800F049FE01224FF448
:100FBC0080612F4800F043FE01224FF400612C4861
:100FCC0000F03DFE01224FF48051294800F037FE1D
:100FDC0001224FF40051264800F031FE7B68082BAB
:100FEC0028D100228021224800F029FE00224FF453
:100FFC0080711F4800F023FE00224FF400711C4842
:10100C0000F01DFE00224FF48061194800F017FE1D
:10101C0000224FF40061164800F011FE00224FF43C
:10102C008051134800F00BFE00224FF40051104881
:10103C0000F005FE7B68092B2BD1002280210C4887
:10104C0000F0FDFD00224FF48071094800F0F7FD1F
:10105C0000224FF40071064800F0F1FD00224FF41D
:10106C008061034800F0EBFD01224FF4006101E0C8
:10107C00000C0140094800F0E2FD00224FF48051C1
:10108C00064800F0DCFD00224FF40051034800F04C
:10109C00D6FD00BF0837BD4680BD00BF000C014027
:1010AC0080B590B000AF07F1180328220021184634
:1010BC0001F0C6FD3B1D00221A605A609A60DA608E
:1010CC001A610223BB610123BB621023FB62002364
:1010DC007B6307F11803184600F0CAFD0346002B8A
:1010EC0001D000F0F1F80F237B600023BB600023DC
:1010FC00FB6000233B6100237B613B1D00211846F4
:10110C0001F036F80346002B01D000F0DDF800BFEB
:10111C004037BD4680BD000080B586B000AF07F1FA
:10112C00080300221A605A609A60DA603B4600227B
:10113C001A605A601D4B4FF080421A601B4B41F6EF
:10114C003F725A60194B00229A60184B0922DA60E0
:10115C00164B00221A61154B00229A61134801F0BC
:10116C0063F90346002B01D000F0AEF84FF4805326
:10117C00BB6007F1080319460C4801F0F9FA034665
:10118C00002B01D000F0A0F800233B6000237B6013
:10119C003B461946054801F0C5FC0346002B01D01F
:1011AC0000F092F800BF1837BD4680BDBC0000208F
:1011BC0080B588B000AF07F1100300221A605A60A6
:1011CC009A60DA602F4B9B692E4A43F010039361AF
:1011DC002C4B9B6903F01003FB60FB68294B9B694C
:1011EC00284A43F004039361264B9B6903F00403E4
:1011FC00BB60BB68234B9B69224A43F00803936195
:10120C00204B9B6903F008037B607B6800224FF640
:10121C007E011D4800F013FD002243F6FF711B48B0
:10122C0000F00DFD4FF460433B6100237B61012313
:10123C00BB6107F110031946154800F06FFB4FF620
:10124C007E033B6101237B610023BB610223FB61B5
:10125C0007F1100319460C4800F060FB43F6FF73CE
:10126C003B6101237B610023BB610223FB6107F11E
:10127C0010031946054800F051FB00BF2037BD464E
:10128C0080BD00BF0010024000080140000C01406E
:10129C000010014080B582B000AF786000F02EF8ED
:1012AC0000F05AF800F086F800F0B2F800F0DEF822
:1012BC0000F0F6F8FEF79EFFFEF7EAFFFFF736F8B0
:1012CC0000BF0837BD4680BD80B400AF72B600BF0A
:1012DC00FEE7000080B483B000AF7860054A7B68FD
:1012EC001360054B00221A6000BF0C37BD4680BC52
:1012FC00704700BF840000208800002080B400AF3D
:10130C00094B1B68002B0BDD074B1B68013B064A86
:10131C001360054B1B68002B02DC044B01221A6086
:10132C0000BFBD4680BC70478400002088000020B0
:10133C0080B483B000AF7860054A7B681360054BBE
:10134C0000221A6000BF0C37BD4680BC704700BF3E
:10135C008C0000209000002080B400AF094B1B686B
:10136C00002B0BDD074B1B68013B064A1360054B3A
:10137C001B68002B02DC044B01221A6000BFBD4627
:10138C0080BC70478C0000209000002080B483B09B
:10139C0000AF7860054A7B681360054B00221A6029
:1013AC0000BF0C37BD4680BC704700BF94000020C6
:1013BC009800002080B400AF094B1B68002B0BDD9C
:1013CC00074B1B68013B064A1360054B1B68002B3F
:1013DC0002DC044B01221A6000BFBD4680BC704782
:1013EC00940000209800002080B483B000AF786097
:1013FC00054A7B681360054B00221A6000BF0C374E
:10140C00BD4680BC704700BF9C000020A00000209F
:10141C0080B400AF094B1B68002B0BDD074B1B681E
:10142C00013B064A1360054B1B68002B02DC044B86
:10143C0001221A6000BFBD4680BC70479C00002092
:10144C00A000002080B483B000AF7860054A7B68B0
:10145C001360054B00221A6000BF0C37BD4680BCE0
:10146C00704700BFA4000020A800002080B400AF8B
:10147C00094B1B68002B0BDD074B1B68013B064A15
:10148C001360054B1B68002B02DC044B01221A6015
:10149C0000BFBD4680BC7047A4000020A8000020FF
:1014AC0080B400AF094B1B68002B0BDD074B1B688E
:1014BC00013B064A1360054B1B68002B02DC044BF6
:1014CC0001221A6000BFBD4680BC7047AC000020F2
:1014DC00B000002080B485B000AF154B9B69144A56
:1014EC0043F001039361124B9B6903F00103BB6052
:1014FC00BB680F4BDB690E4A43F08053D3610C4B36
:10150C00DB6903F080537B607B680A4B5B68FB6094
:10151C00FB6823F0E063FB60FB6843F08063FB60D7
:10152C00044AFB68536000BF1437BD4680BC70474B
:10153C00001002400000014080B584B000AF78601C
:10154C007B681B68B3F1804F13D10C4BDB690B4AE2
:10155C0043F00103D361094BDB6903F00103FB602A
:10156C00FB68002200211C2000F0A1F91C2000F0D7
:10157C00BAF900BF1037BD4680BD00BF0010024055
:10158C0080B400AFFEE780B400AFFEE780B400AFDC
:10159C00FEE780B400AFFEE780B400AFFEE780B496
:1015AC0000AF00BFBD4680BC704780B400AF00BF29
:1015BC00BD4680BC704780B400AF00BFBD4680BC48
:1015CC00704780B500AF00F07FF800BF80BD000011
:1015DC0080B500AF024800F0C3FF00BF80BD00BF64
:1015EC00BC00002080B400AF00BFBD4680BC70477B
:1015FC00FFF7F8FF0B480C490C4A002302E0D458C3
:10160C00C4500433C4188C42F9D3094A094C002342
:10161C0001E013600432A242FBD301F0EDFAFFF7B4
:10162C0053F87047000000205C000020A02C00083C
:10163C005C00002008010020FEE7000080B500AF30
:10164C00084B1B68074A43F010031360032000F09B
:10165C0023F90F2000F008F8FFF73CFF0023184691
:10166C0080BD00BF0020024080B582B000AF786022
:10167C00124B1A68124B1B7819464FF47A73B3FB52
:10168C00F1F3B2FBF3F3184600F03BF90346002BE1
:10169C0001D001230EE07B680F2B0AD80022796859
:1016AC004FF0FF3000F003F9064A7B68136000230B
:1016BC0000E0012318460837BD4680BD50000020CD
:1016CC00580000205400002080B400AF054B1B785C
:1016DC001A46054B1B681344034A136000BFBD46F2
:1016EC0080BC7047580000200401002080B400AF7B
:1016FC00024B1B681846BD4680BC70470401002095
:10170C0080B485B000AF78607B6803F00703FB60A2
:10171C000C4BDB68BB60BA684FF6FF031340BB6031
:10172C00FB681A02BB68134343F0BF6343F40033F6
:10173C00BB60044ABB68D36000BF1437BD4680BC95
:10174C00704700BF00ED00E080B400AF044BDB68D5
:10175C001B0A03F007031846BD4680BC704700BF48
:10176C0000ED00E080B483B000AF0346FB7197F945
:10177C000730002B0BDBFB7903F01F02064997F9AE
:10178C0007305B09012000FA02F241F8232000BF68
:10179C000C37BD4680BC704700E100E080B483B0DC
:1017AC0000AF03463960FB7197F90730002B0ADB59
:1017BC003B68DAB20C4997F907301201D2B20B44EC
:1017CC0083F800230AE03B68DAB20849FB7903F09E
:1017DC000F03043B1201D2B20B441A7600BF0C3734
:1017EC00BD4680BC704700BF00E100E000ED00E0AA
:1017FC0080B489B000AFF860B9607A60FB6803F020
:10180C000703FB61FB69C3F10703042B28BF042307
:10181C00BB61FB690433062B02D9FB69033B00E077
:10182C0000237B614FF0FF32BB6902FA03F3DA430A
:10183C00BB681A407B699A404FF0FF317B6901FA13
:10184C0003F3D9437B680B40134318462437BD463A
:10185C0080BC704780B582B000AF78607B68013B7C
:10186C00B3F1807F01D301230FE00A4A7B68013B6F
:10187C0053600F214FF0FF30FFF790FF054B002214
:10188C009A60044B07221A60002318460837BD469D
:10189C0080BD00BF10E000E080B582B000AF786082
:1018AC007868FFF72DFF00BF0837BD4680BD80B5B7
:1018BC0086B000AF0346B9607A60FB7300237B618E
:1018CC00FFF742FF78617A68B9687869FFF790FF93
:1018DC00024697F90F3011461846FFF75FFF00BF1D
:1018EC001837BD4680BD80B582B000AF0346FB7192
:1018FC0097F907301846FFF735FF00BF0837BD468C
:10190C0080BD80B582B000AF78607868FFF7A2FF29
:10191C00034618460837BD4680BD000080B48BB026
:10192C0000AF7860396000237B6200233B6248E1A2
:10193C0001227B6A02FA03F3FB613B681B68FA69BC
:10194C001340BB61BA69FB699A4240F037813B682E
:10195C005B68A34A93425ED0A14A934275D8A14AD0
:10196C00934258D09F4A93426FD89F4A934252D089
:10197C009D4A934269D89D4A93424CD09B4A9342CC
:10198C0063D89B4A934246D0994A93425DD8122B16
:10199C002AD8122B59D801A252F823F0231A000886
:1019AC00FD1900080F1A0008511A0008571A0008F0
:1019BC00571A0008571A0008571A0008571A000837
:1019CC00571A0008571A0008571A0008571A000827
:1019DC00571A0008571A0008571A0008571A000817
:1019EC00051A0008191A0008824A934213D02CE0F9
:1019FC003B68DB683B6229E03B68DB6804333B6295
:101A0C0024E03B68DB6808333B621FE03B68DB6823
:101A1C000C333B621AE03B689B68002B02D1042319
:101A2C003B6213E03B689B68012B05D108233B62AA
:101A3C007B68FA691A6109E008233B627B68FA69E2
:101A4C005A6103E000233B6200E000BFBB69FF2B3F
:101A5C0001D87B6801E07B6804337B61BB69FF2B99
:101A6C0002D87B6A9B0002E07B6A083B9B003B61CF
:101A7C007B691A680F213B6901FA03F3DB431A40B7
:101A8C00396A3B6901FA03F31A437B691A603B68B4
:101A9C005B6803F08053002B00F09080564B9B69E1
:101AAC00554A43F001039361534B9B6903F00103C7
:101ABC00BB60BB68514A7B6A9B08023352F82330E7
:101ACC00FB607B6A03F003039B000F2202FA03F313
:101ADC00DB43FA681340FB607B68494A93420DD0A4
:101AEC007B68484A934207D07B68474A934201D1AE
:101AFC00022304E0032302E0012300E000237A6ABE
:101B0C0002F0030292009340FA681343FB603B49D6
:101B1C007B6A9B080233FA6841F823203B685B68B8
:101B2C0003F48013002B06D0384B9A683749BB69F5
:101B3C0013438B6006E0354B9A68BB69DB43334932
:101B4C0013408B603B685B6803F40013002B06D0DA
:101B5C002E4BDA682D49BB691343CB6006E02B4B47
:101B6C00DA68BB69DB4329491340CB603B685B688F
:101B7C0003F40033002B06D0244B5A682349BB696D
:101B8C0013434B6006E0214B5A68BB69DB431F498A
:101B9C0013404B603B685B6803F48033002B06D02A
:101BAC001A4B1A681949BB6913430B6006E0174BB3
:101BBC001A68BB69DB43154913400B607B6A013320
:101BCC007B623B681A687B6A22FA03F3002B7FF472
:101BDC00AFAE00BF00BF2C37BD4680BC704700BF06
:101BEC000000321000003110000022100000211003
:101BFC000000121000001110001002400000014003
:101C0C0000080140000C014000100140000401409C
:101C1C0080B485B000AF78600B467B807B689A6897
:101C2C007B881340002B02D00123FB7301E00023BF
:101C3C00FB73FB7B18461437BD4680BC704780B4E1
:101C4C0083B000AF78600B467B8013467B707B784B
:101C5C00002B03D07A887B681A6103E07B881A0416
:101C6C007B681A6100BF0C37BD4680BC7047000012
:101C7C0080B586B000AF78607B68002B01D1012362
:101C8C006CE27B681B6803F00103002B00F087807B
:101C9C00924B5B6803F00C03042B0CD08F4B5B68EE
:101CAC0003F00C03082B12D18C4B5B6803F48033CC
:101CBC00B3F5803F0BD1894B1B6803F40033002B29
:101CCC006CD07B685B68002B68D1012346E27B6893
:101CDC005B68B3F5803F06D1804B1B687F4A43F4A9
:101CEC00803313602EE07B685B68002B0CD17B4B40
:101CFC001B687A4A23F480331360784B1B68774A4D
:101D0C0023F4802313601DE07B685B68B3F5A02F80
:101D1C000CD1724B1B68714A43F4802313606F4BD8
:101D2C001B686E4A43F4803313600BE06B4B1B68EB
:101D3C006A4A23F480331360684B1B68674A23F4A8
:101D4C00802313607B685B68002B13D0FFF7CEFCFD
:101D5C00386108E0FFF7CAFC02463B69D31A642BD2
:101D6C0001D90323FAE15D4B1B6803F40033002B0C
:101D7C00F0D014E0FFF7BAFC386108E0FFF7B6FCCE
:101D8C0002463B69D31A642B01D90323E6E1534B7A
:101D9C001B6803F40033002BF0D100E000BF7B681C
:101DAC001B6803F00203002B63D04C4B5B6803F001
:101DBC000C03002B0BD0494B5B6803F00C03082B76
:101DCC001CD1464B5B6803F48033002B16D1434B7C
:101DDC001B6803F00203002B05D07B681B69012BE9
:101DEC0001D00123BAE13D4B1B6823F0F8027B685C
:101DFC005B69DB00394913430B603AE07B681B6974
:101E0C00002B20D0364B01221A60FFF76FFC386193
:101E1C0008E0FFF76BFC02463B69D31A022B01D991
:101E2C0003239BE12D4B1B6803F00203002BF0D026
:101E3C002A4B1B6823F0F8027B685B69DB0027499F
:101E4C0013430B6015E0264B00221A60FFF74EFC83
:101E5C00386108E0FFF74AFC02463B69D31A022BB3
:101E6C0001D903237AE11D4B1B6803F00203002BFD
:101E7C00F0D17B681B6803F00803002B3AD07B6819
:101E8C009B69002B19D0174B01221A60FFF72EFC0F
:101E9C00386108E0FFF72AFC02463B69D31A022B93
:101EAC0001D903235AE10D4B5B6A03F00203002BAB
:101EBC00F0D0012000F09AFA1CE00A4B00221A60C4
:101ECC00FFF714FC38610FE0FFF710FC02463B698A
:101EDC00D31A022B08D9032340E100BF00100240A3
:101EEC0000004242800442429E4B5B6A03F00203B4
:101EFC00002BE9D17B681B6803F00403002B00F076
:101F0C00A6800023FB75974BDB6903F08053002BF5
:101F1C000DD1944BDB69934A43F08053D361914BC1
:101F2C00DB6903F08053BB60BB680123FB758E4BF0
:101F3C001B6803F48073002B18D18B4B1B688A4AE7
:101F4C0043F480731360FFF7D1FB386108E0FFF7AF
:101F5C00CDFB02463B69D31A642B01D90323FDE068
:101F6C00814B1B6803F48073002BF0D07B68DB681B
:101F7C00012B06D17B4B1B6A7A4A43F00103136297
:101F8C002DE07B68DB68002B0CD1764B1B6A754A05
:101F9C0023F001031362734B1B6A724A23F0040390
:101FAC0013621CE07B68DB68052B0CD16D4B1B6A44
:101FBC006C4A43F0040313626A4B1B6A694A43F090
:101FCC00010313620BE0674B1B6A664A23F00103A3
:101FDC001362644B1B6A634A23F0040313627B682D
:101FEC00DB68002B15D0FFF781FB38610AE0FFF7A7
:101FFC007DFB02463B69D31A41F28832934201D9E8
:10200C000323ABE0574B1B6A03F00203002BEED00B
:10201C0014E0FFF76BFB38610AE0FFF767FB024641
:10202C003B69D31A41F28832934201D9032395E0DC
:10203C004C4B1B6A03F00203002BEED1FB7D012BF2
:10204C0005D1484BDB69474A23F08053D3617B6849
:10205C00DB69002B00F08180424B5B6803F00C03C2
:10206C00082B61D07B68DB69022B46D13F4B0022E9
:10207C001A60FFF73BFB386108E0FFF737FB0246BD
:10208C003B69D31A022B01D9032367E0354B1B683C
:10209C0003F00073002BF0D17B681B6AB3F5803F13
:1020AC0008D1304B5B6823F400327B689B682D4968
:1020BC0013434B602B4B5B6823F474127B68196AD7
:1020CC007B685B6A0B43274913434B60274B012208
:1020DC001A60FFF70BFB386108E0FFF707FB0246BD
:1020EC003B69D31A022B01D9032337E01D4B1B6824
:1020FC0003F00073002BF0D02FE01C4B00221A6071
:10210C00FFF7F4FA386108E0FFF7F0FA02463B6992
:10211C00D31A022B01D9032320E0124B1B6803F0C6
:10212C000073002BF0D118E07B68DB69012B01D127
:10213C00012313E00B4B5B68FB60FB6803F48032FC
:10214C007B681B6A9A4206D1FB6803F470127B68A9
:10215C005B6A9A4201D0012300E00023184618372D
:10216C00BD4680BD0010024000700040600042423D
:10217C0080B584B000AF786039607B68002B01D1EA
:10218C000123D0E06A4B1B6803F007033A689A42BC
:10219C0010D9674B1B6823F0070265493B68134352
:1021AC000B60634B1B6803F007033A689A4201D03B
:1021BC000123B8E07B681B6803F00203002B20D0DE
:1021CC007B681B6803F00403002B05D0594B5B683C
:1021DC00584A43F4E06353607B681B6803F00803C0
:1021EC00002B05D0534B5B68524A43F46053536049
:1021FC00504B5B6823F0F0027B689B684D4913439E
:10220C004B607B681B6803F00103002B40D07B689C
:10221C005B68012B07D1474B1B6803F40033002B81
:10222C0015D101237FE07B685B68022B07D1414B02
:10223C001B6803F00073002B09D1012373E03D4BA5
:10224C001B6803F00203002B01D101236BE0394B17
:10225C005B6823F003027B685B68364913434B6071
:10226C00FFF744FAF8600AE0FFF740FA0246FB6811
:10227C00D31A41F28832934201D9032353E02D4BF8
:10228C005B6803F00C027B685B689B009A42EBD1A5
:10229C00274B1B6803F007033A689A4210D2244B71
:1022AC001B6823F0070222493B6813430B60204B49
:1022BC001B6803F007033A689A4201D0012332E00D
:1022CC007B681B6803F00403002B08D0194B5B6878
:1022DC0023F4E0627B68DB68164913434B607B6830
:1022EC001B6803F00803002B09D0124B5B6823F426
:1022FC0060527B681B69DB000E4913434B6000F096
:10230C0021F802460B4B5B681B0903F00F030A49CB
:10231C00CB5C22FA03F3094A1360094B1B6818467D
:10232C00FFF7A2F9002318461037BD4680BD00BF49
:10233C000020024000100240742C000850000020C5
:10234C005400002080B487B000AF0023FB60002352
:10235C00BB6000237B6100237B6000233B611E4B31
:10236C005B68FB60FB6803F00C03042B02D0082BAA
:10237C0003D027E0194B3B6127E0FB689B0C03F073
:10238C000F03174AD35C7B60FB6803F48033002B8C
:10239C0010D0114B5B685B0C03F00103114AD35C4A
:1023AC00BB607B680D4A02FB03F2BB68B2FBF3F324
:1023BC007B6104E07B680C4A02FB03F37B617B6965
:1023CC003B6102E0054B3B6100BF3B6918461C3783
:1023DC00BD4680BC704700BF0010024000127A005E
:1023EC00842C0008942C000800093D0080B485B0B2
:1023FC0000AF78600A4B1B680A4AA2FB03235B0AF6
:10240C007A6802FB03F3FB6000BFFB685A1EFA609C
:10241C00002BF9D100BF00BF1437BD4680BC7047FC
:10242C0050000020D34D621080B582B000AF7860B0
:10243C007B68002B01D1012341E07B6893F83D3090
:10244C00DBB2002B06D17B68002283F83C20786835
:10245C00FFF772F87B68022283F83D207B681A68CC
:10246C007B6804331946104600F06EFA7B68012233
:10247C0083F846207B68012283F83E207B6801228A
:10248C0083F83F207B68012283F840207B6801227F
:10249C0083F841207B68012283F842207B6801226B
:1024AC0083F843207B68012283F844207B68012257
:1024BC0083F845207B68012283F83D2000231846D1
:1024CC000837BD4680BD000080B485B000AF786091
:1024DC007B6893F83D30DBB2012B01D0012335E052
:1024EC007B68022283F83D207B681B68DA687B6876
:1024FC001B6842F00102DA607B681B68164A934243
:10250C0009D07B681B68B3F1804F04D07B681B68D3
:10251C00124A934211D17B681B689B6803F0070336
:10252C00FB60FB68062B10D07B681B681A687B6805
:10253C001B6842F001021A6007E07B681B681A688E
:10254C007B681B6842F001021A600023184614379E
:10255C00BD4680BC704700BF002C01400004004009
:10256C0080B582B000AF78607B681B681B6903F094
:10257C000203022B22D17B681B68DB6803F0020389
:10258C00022B1BD17B681B686FF002021A617B68FF
:10259C0001221A777B681B689B6903F00303002BED
:1025AC0003D0786800F0B4F905E0786800F0A7F97A
:1025BC00786800F0B6F97B6800221A777B681B6894
:1025CC001B6903F00403042B22D17B681B68DB68B6
:1025DC0003F00403042B1BD17B681B686FF004020F
:1025EC001A617B6802221A777B681B689B6903F46B
:1025FC004073002B03D0786800F08AF905E0786806
:10260C0000F07DF9786800F08CF97B6800221A776D
:10261C007B681B681B6903F00803082B22D17B68BD
:10262C001B68DB6803F00803082B1BD17B681B6855
:10263C006FF008021A617B6804221A777B681B68AA
:10264C00DB6903F00303002B03D0786800F060F91A
:10265C0005E0786800F053F9786800F062F97B685F
:10266C0000221A777B681B681B6903F01003102B80
:10267C0022D17B681B68DB6803F01003102B1BD185
:10268C007B681B686FF010021A617B6808221A774E
:10269C007B681B68DB6903F44073002B03D07868FC
:1026AC0000F036F905E0786800F029F9786800F058
:1026BC0038F97B6800221A777B681B681B6903F06A
:1026CC000103012B0ED17B681B68DB6803F001034F
:1026DC00012B07D17B681B686FF001021A617868C7
:1026EC00FEF7D8FD7B681B681B6903F08003802B09
:1026FC000ED17B681B68DB6803F08003802B07D14D
:10270C007B681B686FF080021A61786800F06BFAC6
:10271C007B681B681B6903F04003402B0ED17B6860
:10272C001B68DB6803F04003402B07D17B681B68F8
:10273C006FF040021A61786800F0FCF87B681B6847
:10274C001B6903F02003202B0ED17B681B68DB6810
:10275C0003F02003202B07D17B681B686FF020024D
:10276C001A61786800F036FA00BF0837BD4680BDA4
:10277C0080B584B000AF786039600023FB737B6850
:10278C0093F83C30012B01D10223B4E07B68012289
:10279C0083F83C207B68022283F83D207B681B6811
:1027AC009B68BB60BB6823F07703BB60BB6823F4FA
:1027BC007F43BB607B681B68BA689A603B681B6888
:1027CC00B3F5005F3ED0B3F5005F00F28780B3F540
:1027DC00805F00F08680B3F5805F7FD8702B1AD0B5
:1027EC00702B7BD8602B50D0602B77D8502B3CD0E3
:1027FC00502B73D8402B58D0402B6FD8302B64D033
:10280C00302B6BD8202B60D0202B67D8002B5CD0C2
:10281C00102B5AD062E07B6818683B6899683B685B
:10282C005A683B68DB6800F05EF97B681B689B6844
:10283C00BB60BB6843F07703BB607B681B68BA68FE
:10284C009A604FE07B6818683B6899683B685A68E7
:10285C003B68DB6800F047F97B681B689A687B680B
:10286C001B6842F480429A603CE07B6818683B68C5
:10287C0059683B68DB681A4600F0BEF87B681B6839
:10288C005021184600F015F92CE07B6818683B685D
:10289C0059683B68DB681A4600F0DCF87B681B68FB
:1028AC006021184600F005F91CE07B6818683B684D
:1028BC0059683B68DB681A4600F09EF87B681B6819
:1028CC004021184600F0F5F80CE07B681A683B686C
:1028DC001B681946104600F0ECF803E00123FB736B
:1028EC0000E000BF7B68012283F83D207B6800225A
:1028FC0083F83C20FB7B18461037BD4680BD80B466
:10290C0083B000AF786000BF0C37BD4680BC704709
:10291C0080B483B000AF786000BF0C37BD4680BC7C
:10292C00704780B483B000AF786000BF0C37BD46F1
:10293C0080BC704780B483B000AF786000BF0C37A8
:10294C00BD4680BC7047000080B485B000AF786095
:10295C0039607B681B68FB607B68254A934207D013
:10296C007B68B3F1804F03D07B68224A934208D135
:10297C00FB6823F07003FB603B685B68FA681343E9
:10298C00FB607B681A4A934207D07B68B3F1804F97
:10299C0003D07B68174A934208D1FB6823F4407339
:1029AC00FB603B68DB68FA681343FB60FB6823F051
:1029BC0080023B685B691343FB607B68FA681A60B2
:1029CC003B689A687B68DA623B681A687B689A6233
:1029DC007B68074A934203D13B681A697B681A6388
:1029EC007B6801225A6100BF1437BD4680BC70471A
:1029FC00002C01400004004080B487B000AFF860A8
:102A0C00B9607A60FB681B6A7B61FB681B6A23F008
:102A1C000102FB681A62FB689B693B613B6923F00E
:102A2C00F0033B617B681B013A6913433B617B6993
:102A3C0023F00A037B617A69BB6813437B61FB68F3
:102A4C003A699A61FB687A691A6200BF1C37BD4605
:102A5C0080BC704780B487B000AFF860B9607A6012
:102A6C00FB681B6A7B61FB681B6A23F01002FB6826
:102A7C001A62FB689B693B613B6923F470433B61C1
:102A8C007B681B033A6913433B617B6923F0A0030A
:102A9C007B61BB681B017A6913437B61FB683A69F4
:102AAC009A61FB687A691A6200BF1C37BD4680BC0C
:102ABC00704780B485B000AF786039607B689B68E4
:102ACC00FB60FB6823F07003FB603A68FB68134300
:102ADC0043F00703FB607B68FA689A6000BF143709
:102AEC00BD4680BC704780B487B000AFF860B96059
:102AFC007A603B60FB689B687B617B6923F47F4356
:102B0C007B613B681A027B681A43BB6813437A6982
:102B1C0013437B61FB687A699A6000BF1C37BD4622
:102B2C0080BC704780B485B000AF786039607B683A
:102B3C0093F83C30012B01D1022341E07B68012248
:102B4C0083F83C207B68022283F83D207B681B685D
:102B5C005B68FB607B681B689B68BB60FB6823F051
:102B6C007003FB603B681B68FA681343FB607B686F
:102B7C001B68FA685A607B681B68144A934209D038
:102B8C007B681B68B3F1804F04D07B681B68104ACC
:102B9C0093420CD1BB6823F08003BB603B685B683D
:102BAC00BA681343BB607B681B68BA689A607B6821
:102BBC00012283F83D207B68002283F83C2000230F
:102BCC0018461437BD4680BC704700BF002C01402E
:102BDC000004004080B483B000AF786000BF0C37B5
:102BEC00BD4680BC704780B483B000AF786000BF36
:102BFC000C37BD4680BC704770B500260C4D0D4C93
:102C0C00641BA410A64209D100F022F800260A4D3C
:102C1C000A4C641BA410A64205D170BD55F8043BA8
:102C2C0098470136EEE755F8043B98470136F2E732
:102C3C00982C0008982C0008982C00089C2C000854
:102C4C0003460244934200D1704703F8011BF9E795
:102C5C00F8B500BFF8BC08BC9E467047F8B500BF7D
:082C6C00F8BC08BC9E4670474D
:102C74000000000000000000010203040607080928
:102C840002030405060708090A0B0C0D0E0F1010A9
:042C94000102000039
:042C980031010008FE
:042C9C000D0100081E
:102CA0000100000001000000010000000100000020
:102CB000C800000001000000010000000100000049
:102CC00001000000C8000000010000000100000039
:102CD0000100000001000000C80000000100000029
:102CE00005000000F40100002C010000C8000000F5
:0C2CF0000024F4001000000001000000AF
:04000005080015FDDD
:00000001FF
